:020000040800F2
:1000000070110020013E0008093E00085B0D000849
:100010000D3E00080F3E0008113E000800000000E1
:10002000000000000000000000000000133E000877
:10003000153E000800000000173E0008193E0008A9
:100040001B3E00081B3E00081B3E00081B3E00082C
:100050001B3E00081B3E00081B3E00081B3E00081C
:100060001B3E00081B3E00081B3E00081B3E00080C
:100070001B3E00081B3E00081B3E00081B3E0008FC
:100080001B3E00081B3E00081B3E00081B3E0008EC
:100090001B3E00081B3E00081B3E00081B3E0008DC
:1000A0001B3E00081B3E00081B3E00081B3E0008CC
:1000B0001B3E00081B3E00081B3E00081B3E0008BC
:1000C0001B3E00081B3E00081B3E00081B3E0008AC
:1000D0001B3E0008491800081B3E00081B3E000894
:1000E0001B3E00081B3E00081B3E00081B3E00088C
:1000F0001B3E00081B3E00081B3E00081B3E00087C
:100100001B3E00081B3E0008091000081B3E0008AB
:100110001B3E00081B3E00081B3E00081B3E00085B
:100120001B3E00081B3E00081B3E00081B3E00084B
:100130001B3E00081B3E00081B3E00081B3E00083B
:100140001B3E00081B3E00081B3E00081B3E00082B
:100150001B3E00081B3E0008171700081B3E000846
:100160001B3E00081B3E00081B3E00081B3E00080B
:100170001B3E00081B3E00081B3E00081B3E0008FB
:100180001B3E000800F002F800F05AF80AA090E8C0
:10019000000C82448344AAF10107DA4501D100F042
:1001A0004FF8AFF2090EBAE80F0013F0010F18BFB5
:1001B000FB1A43F001031847E83E0000083F000027
:1001C0000A444FF0000C10F8013B13F0070408BF7D
:1001D00010F8014B1D1108BF10F8015B641E05D01B
:1001E00010F8016B641E01F8016BF9D113F0080FD0
:1001F0001EBF10F8014BAD1C0C1B09D16D1E58BF62
:1002000001F801CBFAD505E014F8016B01F8016B98
:100210006D1EF9D59142D6D370470000002300240B
:1002200000250026103A28BF78C1FBD8520728BF06
:1002300030C148BF0B6070471FB51FBD10B510BD62
:1002400003F0EDFE1146FFF7F7FF00F019F803F099
:100250000BFF03B4FFF7F2FF03BC03F00FFF000036
:10026000EFF30980704780F309887047EFF3088047
:10027000704780F30888704740BA7047C0BA70472B
:1002800000F03CF9012806D100F07AFD00F0FBF8FF
:1002900000F0A2FC01E000F011F901E000F0B0FE76
:1002A000FCE700002DE9FF4F85B0044690469B46D1
:1002B000DDF84890012C01D17A4D12E0022C01D1D9
:1002C000794D0EE0032C01D1784D0AE0042C01D1C8
:1002D000774D06E0052C01D1764D02E0062C00D1C9
:1002E000754DB8F1000F01D100270CE0B8F1010FF6
:1002F00002D14FF4806706E0B8F1020F02D14FF44B
:10030000C06700E00027BBF1080F02D14FF0000AE0
:1003100007E0BBF1090F02D14FF4805A01E04FF022
:10032000000AB9F1010F01D1002612E0B9F1020F64
:1003300002D14FF400560CE0B9F1030F02D14FF493
:10034000805606E0B9F1040F02D14FF4405600E0A8
:10035000002606980190ADF808A0ADF80A60ADF847
:100360000C700020ADF810000C20ADF80E0001A9B3
:10037000284603F095FA012240F22551284603F061
:10038000CDFB0121284603F013FB09B0BDE8F08F37
:100390002DE9F84306460F4614461D46DDF8208039
:1003A000062E02DD0020BDE8F883002D00DD641C70
:1003B00023462A4639463046CDF80080FFF772FFC3
:1003C0000120F0E708B501F075F801F09FF801F0A1
:1003D000C2F90120002308224FF4E1310090FFF719
:1003E000D7FF08BD2DE9F04104460D4616461F46CD
:1003F000012C05D13146284601F0F6F9BDE8F0811F
:1004000000BF00BF4FF0FF30F8E72DE9F041044690
:100410000D4616461F46012C04D13146284601F0F0
:10042000E9F800E000BF00BFBDE8F0812DE9F04130
:1004300005460F4616461C464FF00008012D10D108
:1004400000234022314678B2FFF7CCFF8046B8F156
:10045000000F03DC00202080BDE8F081A4F80080BC
:10046000FAE700BFF8E72DE9F04104460D461646CD
:100470001F46012C05D13A880023314668B2FFF7A8
:10048000C4FFBDE8F08110B500F0FEFB00F09EFD5A
:1004900000F032FCFFF796FF00F006FE00F0E3FFED
:1004A00010BD000000100140004400400048004022
:1004B000004C0040005000400014014010B50B48B3
:1004C00000680B490840B0F1005F0ED10748406852
:1004D0000849086008460068074908600349086839
:1004E000FFF7C7FE04480068804710BD00000408FD
:1004F0000000FE2F040000200000002030B585B071
:10050000002420A103C9CDE903010020009001903F
:100510000290002500F018FD09226946002000F035
:100520003EFD9DF80000A52810D10721684600F087
:10053000A3F8054606220DF1010103A803F080FC93
:1005400020B9BDF80700A84200D10124204605B01B
:1005500030BD0EB50020009001900290A5208DF8CE
:1005600000000020CDF80100ADF805000721684625
:1005700000F082F8ADF8070009226946002000F07B
:10058000F9FC0EBD7A6C64120401000070B50246DD
:100590000B461068C0F38D311088C0F30D048C42F7
:1005A00003D19088C0F38030B8B90846491C9668DA
:1005B00033549088C0F30D00884200D800218C424B
:1005C00005D1506820F4804000F5804050601068EC
:1005D00061F39B301060012070BD0020FCE770B516
:1005E00002460B461068C0F38D341088C0F30D012D
:1005F000A14203D19088C0F38030C0B10846491CA5
:100600009668305C18709088C0F30D00884200D85E
:1006100000219088C0F3803018B1506820F48040E9
:100620005060106861F30D001060012070BD002063
:10063000FCE701460888C0F30D000A68C2F38D325A
:10064000904205D18888C0F3803008B101207047FE
:100650000020FCE701460888C0F30D000A68C2F3D9
:100660008D32904205D18888C0F3803008B90120CE
:1006700070470020FCE7000070B502460C46FF25DD
:10068000FF2309E012F8010B80EA05010648405CEF
:1006900080EA03050548435C2000A4F10104F1D180
:1006A00043EA052070BD000008000020080100207A
:1006B00010B502460B464FF0FF30002100BF15E099
:1006C000545C2E2C10D14C1C145D622C0CD18C1C53
:1006D000145D692C08D1CC1C145D6E2C04D1032947
:1006E00001DBCC1E20B204E04C1CA1B2DC1E8C420B
:1006F000E6DC00BF10BD2DE9F341A8B004464FF081
:100700000008BDF8A4102046FFF7D2FF07460020DE
:100710002690279025900025002623902490842160
:1007200002A803F020FC00200190781C70D0E01992
:100730000188ADF8041080788DF8060000BF08E04D
:1007400006EB8600460001A8405D30380644681C70
:10075000C5B2032DF4DBA5208DF89800CDF8996083
:10076000052126A8FFF788FF2590BDF89400ADF875
:100770009D00072226A90D2000F0FCFB07220D2179
:1007800026A800F023FEA5208DF88C00BDF8A4005B
:10079000ADF88D00032123A8FFF76EFF2590BDF86B
:1007A0009400ADF88F00052223A9182000F0E2FB89
:1007B0000522182123A800F009FEA5208DF80800C5
:1007C000BDF8A42021460DF1090003F065FBBDF83A
:1007D000A410491C02A8FFF74FFF259002A9BDF8FD
:1007E000A400401C0844BDF894100180BDF8A4008A
:1007F000C01C82B202A9212000F0BCFBBDF8A400FD
:10080000C01C82B2212102A800F0E0FD4FF00108D7
:1008100040462AB0BDE8F0810220FE490870002061
:100820008880087448610021FA4801768160C160BF
:10083000F94901620620F94908707047F5481430FB
:100840007047014600220020F24B1B78012B03D099
:10085000022B04D1872202E04FF4806200BF00BF68
:10086000914200DC0120704701460020E94A127FD6
:100870008A4200D10120704701460020E54A1278E3
:10088000012A04D0022A0AD101B9012007E0E14A75
:1008900012798A1AD2B2012A00D1012000BF00BF0A
:1008A000704700B587B00020049005900690039033
:1008B000029068208DF80000D648007F8DF8010076
:1008C000D4484088ADF802000220ADF8040004A826
:1008D0000399084400990160019941600398801DC3
:1008E000039004A803990844CC490988018003981F
:1008F000801C039004A80399FFF7BEFE029004A891
:1009000003990844BDF8081001800398801C0390E7
:1009100003AB04AA01210846FFF7A5FD07B000BDFF
:1009200010B50446BB480079201A10F0FF0F01D122
:10093000FA2000E0F920B9494870FFF7B2FF10BD76
:1009400010B5B448007E012808D1FE20B349487094
:10095000FFF7A7FFFFF7FDFD00F083F910BDF0B52D
:10096000A3B005460C460027002600200090872CE7
:1009700004D82246294601A803F08EFA9DF8040007
:10098000022802D0032851D113E00227A449A2482B
:1009900000F06FFA48B1FFF73FFF01209D49087052
:1009A000BDF809109B48818102E000F0E9F9F827C1
:1009B0003CE00327974881689748FFF75DFE0646AD
:1009C00094488089B0422FD1BDF80900B0422BD1A4
:1009D00090488068DDF80510884225D1E01F81B27B
:1009E0000DF10B00FFF787FEE0B18B49491E8D48E2
:1009F00000F03FFAA0B18B480090DDF80500C0F38D
:100A00008F028549684600F05BFA38B901208149B8
:100A10000874FFF79EFD01F00AFA06E0F62704E0ED
:100A2000F72702E0F52700E0FC2700BF00BF7B4866
:100A3000477023B0F0BD2DE9F04105460C46002774
:100A40004FF0FB082F46E01704EB907082103946F8
:100A50007048203000F034FA48B96E48806820446D
:100A60006C4988604FF001080846408888806B48D0
:100A700080F80180BDE8F08170B505460E4600247F
:100A800000BF15E06348007804EB8401664A515CBE
:100A900088420BD104EB840011460844D0F80120B1
:100AA000314628469047FFF7FCFE05E0601CC4B2C3
:100AB0005E4800788442E5DB00BF70BD2DE9FE434F
:100AC00007460E463C463588B6F800800020029066
:100AD000019000905CE0A08802902078682852D1B4
:100AE000BDF80800FFF7ADFE00284CD0BDF80800A7
:100AF0000830854246D3BDF80800801D2044008898
:100B00000190BDF80800811D2046FFF7B5FDBDF836
:100B10000410884230D100203E494861608800902E
:100B2000BDF8000008B902200870BDF8000039497E
:100B300048806078FFF798FE50B1BDF80000FFF7DD
:100B40009BFE28B1BDF80810A01DFFF795FF07E038
:100B50006078FFF789FE18B1BDF80000FFF7E0FEEE
:100B6000BDF8080008300444BDF808000830281A11
:100B700085B2002002900BE0641C681E85B2002044
:100B8000029005E006E0641C681E85B20020029019
:100B9000082DA0DA00BF2A462146384603F07CF92A
:100BA0003580A8EB0501781903F0BBF9BDE8FE8399
:100BB00010B502211E4800F088FA01280BD100214F
:100BC0001B4800F082FA1B48007808B9012000E0B9
:100BD00000201849087010BDADF6180D0024002043
:100BE0000190FFF719FE00BF0020019002A8021932
:100BF00001AB01210846FFF719FCBDF804002044B1
:100C000084B2B4F5016F00D90024BDF80400D8B94E
:100C1000D4B111E05C02002000000A08110200209B
:100C2000FFFF0F08000004088A40000808020020A7
:100C30000C0200201002002002AD019401A92846F8
:100C4000FFF73CFFBDF8044000F0DAF90B48007CE8
:100C5000012801D100F005F8FFF772FEFFF7A8FFA9
:100C6000C2E70748006800F4E06006490843001D39
:100C700003490860BFF3408F00BFFEE75C0200201D
:100C80000CED00E00000FA051CB50121502001F038
:100C900029FE00208DF8060001208DF807008DF850
:100CA000040002208DF805004002009069461048BB
:100CB00001F044FB4020009069460E4801F03EFBE5
:100CC0004FF480600A49488340200A491A3108805D
:100CD0001CBD58B9012904D14022064B18331A8093
:100CE00003E04022034B1A331A8000BF00BF704755
:100CF000001002400018024008B54FF4A06000F058
:100D000007FE25208DF8000000208DF8010001204D
:100D10008DF802008DF80300684600F0FEFD4620C5
:100D20008DF8000001208DF8010004208DF80200EC
:100D300001208DF80300684600F0EFFD32208DF8A9
:100D4000000002208DF801008DF8020001208DF8CE
:100D50000300684600F0E1FD08BD00BF06480068DA
:100D600000F4E06005490843001D03490860BFF333
:100D7000408F00BF00BFFEE70CED00E00000FA0569
:100D800010B501F047F8F32001F064FA10BD0146F8
:100D90000020614A914203D2B1F1006F00D350E0CC
:100DA0005E4A914204D25C4A914201D3082048E055
:100DB0005B4A914204D2594A914201D3102040E04B
:100DC000584A914204D2564A914201D3182038E041
:100DD000554A914204D2534A914201D3202030E037
:100DE000524A914204D2504A914201D3282028E02D
:100DF0004F4A914204D24D4A914201D3302020E023
:100E00004C4A914204D24A4A914201D3382018E018
:100E1000494A914204D2474A914201D3402010E00E
:100E2000464A914204D2444A914201D3482008E004
:100E3000434A914204D2414A914201D3502000E0FA
:100E40005820704770B50546012608242846FFF74C
:100E50009EFF044601F0CEF9E1080841E20840F6A1
:100E6000FF711141884201D1002600E00126304681
:100E700070BD2DE9F04706460D4601274FF00808E2
:100E800000244FF058093046FFF781FF804628467E
:100E9000FFF77DFF814644460CE000F0B1F872B6E2
:100EA0000221204601F002F8082801D0002703E0C3
:100EB00062B608344C45F0D900BF3846BDE8F0872B
:100EC0002DE9F04104460E461746002500BF1AE002
:100ED00000F096F872B656F82510206801F090F8E8
:100EE00008280CD12068006856F82510884202D0E6
:100EF0000220BDE8F0812068001D206001E0012093
:100F0000F7E762B66D1CBD4203D220680D498842E6
:100F1000DED90020EDE70000004000080080000856
:100F200000C00008000001080000020800000408DA
:100F3000000006080000080800000A0800000C086D
:100F400000000E08FBFF0F0810B50121080701F093
:100F5000FCFC012001F0DDFA0121880401F0C2FC53
:100F6000012001F0E8FA00BF082001F01AFB002878
:100F7000FAD010BD30B50B4600240021B0F5406F0B
:100F800000DD30BD104D4419002104E05D5C04F823
:100F9000015B4D1CA9B29142F8DB00BFF1E730B50F
:100FA0000B4600240021B0F5406F00DD30BD064D3A
:100FB0004419002104E014F8015B5D544D1CA9B2F2
:100FC0009142F8DB00BFF1E70040024010B501207C
:100FD00001F085FB00BF612001F023FB0028FAD05F
:100FE00045F2555001F06AFA032001F06AFA40F226
:100FF000E24001F069FA01F06AFA01F06DFA10BD01
:1010000010B501F064FA10BD10B50121384802F0A6
:101010000CFBE0B10121364802F018FB35480068AE
:101020000068401C33490968086033480068401C68
:10103000314908602F4800680068322807D3322001
:101040002C490968086001202A490968087110BD07
:101050000EB50121082001F078FC254801F080FD43
:1010600042F20F70019040F25720ADF800004FF4AB
:101070008070ADF808000020ADF8020069461C48F9
:1010800001F01BFE01211A4801F082FE01211848DF
:1010900002F0C8FA01221146154802F0AFFA012108
:1010A000134801F093FE0EBD10B5FFF7C7FB1149C1
:1010B00008600020096808600E49096808710E4838
:1010C00000210160FFF7C4FF10BD10B502460020EB
:1010D00021B9094B1B681360012008E0064B1B680F
:1010E00014681B1B8B4201D3012000E0002010BDBF
:1010F000000C00401402002018020020C82000E06C
:10110000401E0028FCD1704710B54FF40060E7493D
:10111000088040100880FFF7F1FFFFF7EFFFFFF7AF
:10112000EDFFE2480838006810F4006F01D100209C
:1011300010BD4FF40060DD49891C0880FFF7DEFF19
:10114000DA480838006810F4006F01D00020EFE79B
:101150004FF40060D549891C0880FFF7CFFF0120BC
:10116000E6E710B54FF48060D049891C0880FFF78E
:10117000C5FF4FF40060CD490880FFF7BFFF4FF473
:101180008060CA490880FFF7B9FF4FF40060C74983
:10119000891C0880FFF7B2FF10BD10B54FF48060C6
:1011A000C249891C0880FFF7A9FF4FF40060BF49BE
:1011B000891C0880FFF7A2FF4FF48060BB490880BC
:1011C000FFF79CFF4FF40060B8490880FFF796FFD7
:1011D00010BD10B54FF48060B449891C0880FFF73A
:1011E0008DFF4FF40060B149891C0880FFF786FF2E
:1011F0004FF48060AD490880FFF780FF4FF48060B6
:10120000AA49891C0880FFF779FF10BD10B54FF47B
:101210008060A649891C0880FFF770FF4FF40060CA
:10122000A2490880FFF76AFF4FF480609F49088059
:10123000FFF764FF4FF480609C49891C0880FFF72A
:101240005DFF10BD10B54FF480609849891C08807F
:10125000FFF754FF4FF4006094490880FFF74EFFFA
:101260004FF4806091490880FFF748FF8F480838A5
:10127000006810F4006F06D04FF480608B49891C21
:101280000880002010BD4FF480608849891C0880C8
:101290000120F7E770B5044608251DE04FF4806093
:1012A0008249891C0880FFF729FF14F0800F04D0C1
:1012B0004FF400607D49088004E04FF400607B49F2
:1012C000891C08806006040EFFF718FF4FF4806049
:1012D00076490880FFF712FF2800A5F10101CDB281
:1012E000DCD14FF480607149891C088070BD70B5F5
:1012F0000825002428026D49088016E06006040EC7
:101300004FF480606949891C0880FFF7F7FE4FF4AD
:10131000806066490880FFF7F1FE6448083800687D
:1013200010F4006F01D044F001042800A5F1010180
:10133000CDB2E3D14FF480605C49891C088020461F
:1013400070BD2DE9F04706460C461746C4F30A0463
:101350004FEA14284FEA480804F0FF0AFFF7D4FECA
:1013600008F1A001C8B2FFF795FFFFF76BFF10B9B6
:101370000020BDE8F0875046FFF78CFFFFF762FFC3
:1013800008B90020F5E7FFF7ECFE08F1A101C8B2AB
:10139000FFF780FFFFF756FF08B90020E9E70025B7
:1013A0000CE0FFF7A4FF8146781EA84201DDFFF79D
:1013B00010FF86F80090761C681C85B2BD42F0DBF9
:1013C000FFF724FFFFF7E9FE0120D2E72DE9F04700
:1013D00006460D4617464FF4004035494883002421
:1013E00003E0FFF78BFE601C84B2322CF9DBC5F3FF
:1013F0000A054FEA15284FEA480805F0FF09FFF7EC
:1014000083FE08F1A001C8B2FFF744FFFFF71AFFFF
:1014100010B90020BDE8F0874846FFF73BFFFFF713
:1014200011FF08B90020F5E700240AE03078FFF743
:1014300031FF761CFFF706FF08B90020EAE7601CC1
:1014400084B2BC42F2DBFFF7A8FE002403E0FFF702
:1014500055FE601C84B2322CF9DB4FF40040144975
:1014600008830120D6E71CB50121022001F03AFAD9
:101470000121102001F036FA4FF440600090012065
:101480008DF804008DF805008DF806008DF8070032
:1014900069460648183800F051FF4FF400400090AC
:1014A0006946034800F04AFF1CBD000018040240D2
:1014B000001002401CB50121084601F013FA012179
:1014C000102001F053FA07220921FE4800F0C1FF65
:1014D00007220A21FB4800F0BCFF00208DF806001F
:1014E00001208DF8070002208DF804008DF805001A
:1014F000000200906946F34800F020FF4FF480603E
:1015000000906946EF4800F019FF1CBD00B58FB090
:101510000121880501F0E6F9EB4800F06BFAEB4891
:101520000190002005904FF4806006900020079005
:10153000089009904FF400300A9000200B90012091
:101540000C9000200D900E904FF000600090402015
:101550000390DF480290402004906946DA4800F08A
:10156000EBFA01221021D84800F0ACFB0022082140
:10157000D54800F0A7FB01228021D448001F02F0CB
:10158000C4FA0FB000BD10B5002407E02246641C69
:10159000CF4BD118CF4A5068FFF721F8402C05D225
:1015A000CC494868FFF756F80028EFD0C648001D20
:1015B0000460C748C4490C31086040F22661C34842
:1015C000001F02F01DFB01221021BF4800F07AFB32
:1015D000002240F22551BD48001F02F09FFA01226F
:1015E0008021BA48001F02F090FA0121B64800F0AD
:1015F000DDFA10BD70B505460C464FF47A66012C35
:1016000003D0B4F5807F00D80CB9002070BD7BE01A
:10161000B04800680078002853D10120AD4909681E
:10162000087000BFAB48406800686FF30D00A9491F
:10163000496808600021A7484068006861F39B3052
:10164000A44949680860A3484068406820F4804085
:10165000A0494968486000BF00BF9E488068006894
:101660006FF30D009B4989680860002199488068E4
:10167000006861F39B3097498968086095488068E5
:10168000406820F4804093498968486000BF09E0C1
:1016900015F8011B8F4A5068FEF778FF08B1641EE9
:1016A00000E001E0002CF3D100BFFFF76CFF01E088
:1016B000FFF7A6FC8748006800780028F8D10120D1
:1016C000A4E7761E06BB002082490968087000BFA7
:1016D0008048406800686FF30D007E4949680860E3
:1016E00000217C484068006861F39B307949496873
:1016F000086078484068406820F48040754949682F
:10170000486000BF002081E73000A6F101067FF4A9
:101710007FAF01207AE710B54FF01D516A4800F005
:10172000BDFA6D49684800F0EAFA98B100216648B0
:1017300000F03CFA012240F226616448001F02F0EA
:10174000EDF900221021604800F0BCFA62495E48C1
:1017500000F0FEFA10BD10B500BF5E48406800689A
:101760006FF30D005B4949680860002159484068E3
:10177000006861F39B3057494968086055484068E4
:10178000406820F4804053494968486000BF00BF6A
:101790005048806800686FF30D004E498968086002
:1017A00000214C488068006861F39B304949896892
:1017B000086048488068406820F48040454989684E
:1017C000486000BF00204349096808704021434831
:1017D00002F0A7FB4FF40161414802F0A2FB402157
:1017E0003B4802F09EFB10BD70B505460C46002636
:1017F0000CB9701E70BD37498868FEF72BFF10B119
:101800004FF0FF30F6E715E0002240F226612F4846
:10181000001F02F083F929466D1C2E4A9068FEF7DE
:10182000DEFE012240F226612848001F02F076F910
:10183000641E761C002C05DD26498868FEF70AFF29
:101840000028E1D03046D5E710B50E211F48001F13
:1018500002F089F918B11D48001F02F0D8F840F2D3
:1018600025511A48001F02F094F9E8B1002240F215
:1018700025511648001F02F051F91448001F02F0CC
:10188000C6F8C4B2134988682146FEF77FFE40F2CD
:1018900025510E48001F02F0B3F9012240F22551F4
:1018A0000A48001F02F03AF940F226610748001F7B
:1018B00002F06FF938B3002240F226610348001F9E
:1018C00010E0000000000240B86402400410014033
:1018D000D00A0020944000080080002880020020E8
:1018E000C002002002F01AF9012240F225510648F8
:1018F00002F014F940F22661034802F081F9002059
:1019000002490968087010BD0010014094400008A9
:1019100033490143334A1160704770B500210023F9
:101920000F22C47824B32F4C246804F4E064C4F577
:10193000E064C4F30721C1F10404E3B20A4144782E
:101940009C40E1B28478144021430C07210E264CC0
:1019500005786155047804F01F050124AC40057832
:101960006D114FF0E02606EB8505C5F8004109E052
:10197000047804F01F040125A5401C4C067876115C
:1019800044F8265070BD1A4A0A400243154B1B1FEB
:101990001A60704739B1134A121D12680243114B85
:1019A0001B1D1A6006E00F4A121D126882430D4B80
:1019B0001B1D1A607047042808D14FF0E021096907
:1019C00041F004014FF0E022116107E04FF0E02107
:1019D000096921F004014FF0E02211617047000015
:1019E0000000FA050CED00E000E400E080E100E01A
:1019F00080FFFF1F016821F00101016000210160EB
:101A000041608160C160016121214161DA49884200
:101A100004D13D21D84A103A91608CE0D649183162
:101A2000884205D14FF47461D34A103A916082E044
:101A3000D1493031884205D14FF47411CE4A103A61
:101A4000916078E0CC494831884205D14FF074610B
:101A5000C94A103A91606EE0C7496031884204D1AA
:101A6000C649C54A103AD16065E0C3497831884219
:101A700004D1C349C04A103AD1605CE0BE499031FC
:101A8000884204D1BF49BC4A103AD16053E0BA49F8
:101A9000A831884205D14FF03D51B74A103AD16084
:101AA00049E0B949884204D13D21B74A083A11605A
:101AB00041E0B5491831884205D14FF47461B24A0A
:101AC000083A116037E0B0493031884205D14FF40F
:101AD0007411AD4A083A11602DE0AB494831884293
:101AE00005D14FF07461A84A083A116023E0A64975
:101AF0006031884204D1A149A34A121F11601AE043
:101B0000A1497831884204D19D499F4A121F116032
:101B100011E09D499031884204D19A499A4A121F96
:101B2000116008E09849A831884204D14FF03D5136
:101B3000954A121F1160704710B500220268934B3E
:101B40001A40CC680B6823434C6923438C692343B8
:101B5000CC6923430C6A23434C6A23438C6A234396
:101B60004C6B23438C6B23431A430260426922F07F
:101B70000702D1E90B3423431A4342610B694360E6
:101B80004B6883608B68C36010BD002101604160B9
:101B90008160C160016141618161C1610162416235
:101BA0008162C162016341638163704721B1026850
:101BB00042F00102026003E0026822F001020260CA
:101BC000704721B1026842F40042026003E00268FB
:101BD00022F400420260704721B1026842F0200204
:101BE000026003E0026822F0200202607047416058
:101BF00070470146486880B2704722B1036843F4D9
:101C00000023036003E0036823F400230360016101
:101C1000704721B1026842F48022026003E002684A
:101C200022F48022026070470AB1016100E0C160C5
:101C30007047014600200A6812F4002F01D00120ED
:101C400000E000207047014600200A6812F0010FF2
:101C500001D0012000E000207047014600204A69C1
:101C600002F03800704730B503460A4600200024D1
:101C7000454DAB4202D24049103901E0424910398A
:101C800012F0005F01D04C6800E00C68404D2C4021
:101C9000144201D0012000E0002030BD02463A4B42
:101CA0009A4202D23448103801E03748103811F017
:101CB000005F03D0364B0B40C36002E0344B0B4057
:101CC0008360704710B511F0800F09D022B14369CD
:101CD00043F08003436103E0436923F080034361E1
:101CE00080290BD02AB1036801F01E04234303604E
:101CF00004E0036801F01E04A343036010BD70B547
:101D000002460020002400251F4EB24202D21A4B88
:101D1000103B01E01C4B103B1E4E314206D01E26EC
:101D200006EAD124166806EA040502E0566906F0C0
:101D3000800511F0005F01D05C6800E01C68144E63
:101D400034400C4202D00DB1012000E0002070BDF3
:101D500002460D4B9A4202D20748103801E00A4869
:101D6000103811F0005F03D0094B0B40C36002E054
:101D7000074B0B4083607047106002403D0000201D
:101D8000400F002000003D20106402403F801CF006
:101D90007D0F7D0F3C0F3C0FFE4A1070704730B135
:101DA000FC49096841F48071FA4A116005E0F9497B
:101DB000096821F48071F74A1160704730B1F54924
:101DC000096841F40071F34A116005E0F1490968BE
:101DD00021F40071EF4A1160704730B1ED49096894
:101DE00041F48061EB4A116005E0EA49096821F499
:101DF0008061E84A11607047E648006840F400607E
:101E0000E44908607047E348006840F48050E149C5
:101E100008607047DF481030006810F0004F05D0B0
:101E2000DD48DC49091D0860DC4808607047D94876
:101E30001030006840F00040D6491031086070470B
:101E40000820D4490C31096801F48031B1F5803F94
:101E500001D1012018E0CF490C31096811F0100FB1
:101E600001D0052010E0CB490C31096811F0EF0FCB
:101E700001D0062008E0C7490C31096811F0020FB3
:101E800001D0072000E00820704708B50820009026
:101E9000FFF7D6FF009002E0FFF7D2FF00909DF819
:101EA00000000128F8D09DF8000008BD70B5044678
:101EB0000A460026082502B909E0012A01D11602C6
:101EC00005E0022A01D1160201E04FF44076FFF747
:101ED000DCFF0546082D2DD1AE481030006820F4F7
:101EE0004070AC4910310860084600683043086013
:101EF0000846006820F0F80008600846006844F0D2
:101F000002010843A349103108600846006840F404
:101F100080300860FFF7B9FF05469E481030006822
:101F200020F002009B49103108600846006820F04C
:101F3000F8000860284670BD30B502460025082428
:101F4000FFF7A3FF044602B909E0012A01D11502F7
:101F500005E0022A01D1150201E04FF44075082C7A
:101F600020D18C481030006820F44070894910312D
:101F7000086008460068284308600846006840F08A
:101F8000040008600846006840F480300860FFF7ED
:101F90007CFF04467F481030006820F004007D4933
:101FA00010310860204630BD70B5064614461D4607
:101FB0004FF00802FFF769FF0246082A1ED1754854
:101FC0001030006820F440707249103108600846F3
:101FD000006840F4407008600846006840F0010066
:101FE000086034607560FFF750FF024669481030A2
:101FF000006820F00100674910310860104670BD8C
:1020000030B502460C460825FFF73FFF0546082D70
:102010001DD160481030006820F440705D491031D7
:1020200008600846006840F40070086008460068D0
:1020300040F0010008601460FFF727FF054655488F
:102040001030006820F00100524910310860284625
:1020500030BD30B502460C460825FFF716FF054691
:10206000082D1DD14B481030006820F440704949BC
:10207000103108600846006840F480700860084627
:10208000006840F0010008601480FFF7FEFE05467E
:1020900040481030006820F001003E4910310860CF
:1020A000284630BD30B502460C460825FFF7EDFE48
:1020B0000546082D1BD137481030006820F44070C9
:1020C0003449103108600846006808600846006816
:1020D00040F0010008601470FFF7D7FE05462D4858
:1020E0001030006820F001002A49103108602846AD
:1020F00030BD28481430006810F0010F05D0284882
:102100002449083108602748086070472148143086
:10211000006840F001001F4914310860704730B575
:1021200002460C460825FFF7B0FE0546082D10D1E3
:102130003CB1184816300088904316491631088083
:1021400007E014481630008891B20843114916314F
:10215000088030BD10B502460824FFF796FE0446FD
:10216000082C02D10B481530027010BDF0B50446A2
:102170000D46FF260827FFF788FE0746082F16D1D1
:1021800004481430007800F00F0645EA06001043BA
:10219000204309E0003C024023016745AB89EFCDB5
:1021A0003B2A19087F6E5D4C2C4914310870F0BD34
:1021B0002A491431097821F00C01284A143211708F
:1021C0001146097801431170704700B50822234871
:1021D0001430007840F00200204914310870FFF7F5
:1021E00054FE0246104600BD1C4814300068C0F37F
:1021F000471070471948163000887047002017496B
:1022000015310978AA2901D0012000E0002070478B
:1022100012481430007800F00C00704739B10F4AB2
:102220001032126802430D4B10331A6006E00B4A5D
:10223000103212688243094B10331A60704701460E
:102240000020064A0C3212680A4201D0012000E048
:102250000020704701490C3108607047003C024083
:1022600010B504468C48844208D10121084600F08C
:102270008EFB0021012000F08AFB5EE0874884424B
:1022800008D10121022000F082FB0021022000F091
:102290007EFB52E08248844208D10121042000F0F4
:1022A00076FB0021042000F072FB46E07D4884426A
:1022B00008D10121082000F06AFB0021082000F06D
:1022C00066FB3AE07848844208D10121102000F0F2
:1022D0005EFB0021102000F05AFB2EE07348844280
:1022E00008D10121202000F052FB0021202000F025
:1022F0004EFB22E06E48844208D10121402000F0CC
:1023000046FB0021402000F042FB16E06948844271
:1023100008D10121802000F03AFB0021802000F04C
:1023200036FB0AE06448844207D10121801500F0A1
:102330002EFB0021A01500F02AFB10BDF0B50A46C7
:1023400000210023002400BF3DE0012505FA01F330
:10235000156805EA03049C4234D105684F00032642
:10236000BE40B543056015794E00B540066835435B
:1023700005601579012D02D01579022D16D18568D9
:102380004F000326BE40B543856055794E00B540E9
:10239000866835438560456801268E40B5434560B3
:1023A000456896798E40B6B235434560C5684F00A2
:1023B0000326BE40B543C560D5794E00B540C6681A
:1023C0003543C560491C1029BFD3F0BD4FF6FF71DE
:1023D00001600021017141718171C171704708B5BF
:1023E0004FF480320092009A0A430092009AC26130
:1023F000C161009AC261C2690092C269009208BDBF
:102400000246002013690B4201D0012000E00020A9
:1024100070470146086980B2704702460020536940
:102420000B4201D0012000E00020704701464869BE
:1024300080B2704701837047418370470AB10183BE
:1024400000E0418370474161704742694A40426100
:102450007047F0B5002300244D07ED0E02FA05F396
:10246000CE1000F1200555F826504E07F70E0F2626
:10247000BE40B543CF1000F1200646F82750CE10DD
:1024800000F1200555F8265045EA0304CE1000F16E
:10249000200545F82640F0BD00000240000402403F
:1024A00000080240000C02400010024000140240EC
:1024B00000180240001C0240002002400E49086043
:1024C00070470D49486070470B49886070474AF66D
:1024D000AA200949086070474CF6CC4006490860BC
:1024E000704701460020044AD2680A4201D0012008
:1024F00000E00020704700000030004010B50121CE
:10250000080700F08AFA00214FF0805000F085FAA9
:1025100010BD2C4908627047014600202A4A106805
:1025200020F0E000084310607047264908617047BA
:10253000264908607047264908607047214948626B
:10254000704710B5024600201F4B186820F00300AA
:10255000104318601F4B1B6843F004031D4C23609D
:10256000012901D130BF00E020BF1A4B1B6823F0C6
:102570000403184C236010BD1348006840F00400A9
:10258000114908600846006840F0020008601148E0
:10259000006840F004000F49086000BF00BF30BF72
:1025A000704701460020084A52680A4201D00120C3
:1025B00000E0002070470449096841EA8001024AAE
:1025C0001160704700000E4200700040A0000E42F3
:1025D000A4000E4210ED00E0FA48006840F001004F
:1025E000F84908600020F74908310860F54800689C
:1025F000F5490840F3490860F448091D0860081FC0
:10260000006820F48020091F08600020ED490C318B
:10261000086070470021EB4A921C11701146087047
:10262000704710B501460022002300204A11012AFC
:1026300002D1E44C236808E0022A03D1E14C703453
:10264000236802E0DF4C7434236801F01F02012488
:1026500094401C4201D0012000E0002010BD38B59C
:10266000002000900024002500BF3120FFF7D9FF93
:1026700005460098401C00900098B0F5A06F01D06E
:10268000002DF2D03120FFF7CCFF08B1012400E08B
:102690000024204638BD01460020CA4A106820F0B8
:1026A000F80040EAC10010607047C94908607047EF
:1026B0000021C44A703211701170012802D0042820
:1026C0000AD104E00121BF4A7032117005E00521F2
:1026D000BC4A7032117000E000BF00BF7047BD49B6
:1026E0000860704770B5049C41EA82150126C6EB6C
:1026F000530645EA0645054345EA0465B14E361DD5
:10270000356070BDB24908667047820142EA0172C5
:10271000AC4B84331A607047AD4988667047AC494A
:10272000C864704702460020A64B0833186820F0A2
:10273000EC6042EA01031843A24B0833186070476B
:10274000024600209F4B0833186820F0784042EA88
:10275000010318439B4B0833186070470146002063
:10276000984A0832106820F0030008431060704750
:1027700094480830006800F00C00704701460020C3
:10278000904A0832106820F0F0000843106070474B
:10279000014600208B4A0832106820F4E0500843BC
:1027A0001060704701460020864A0832106820F405
:1027B000604040EAC10010607047F0B5002100227F
:1027C00000240225002602237E4F08373F6807F0C9
:1027D0000C0121B1042905D0082937D105E07E4F2D
:1027E000076036E07D4F076033E0764F3F1D3F685E
:1027F000C7F38056734F3F1D3F6807F03F036EB12C
:10280000764FB7FBF3F7DFF8BCC10CF1040CDCF832
:1028100000C0CCF3881C07FB0CF40CE06E4FB7FB38
:10282000F3F7DFF8A0C10CF1040CDCF800C0CCF326
:10283000881C07FB0CF4634F3F1D3F68C7F301473B
:102840007F1C7D00B4FBF5F7076002E0624F076074
:1028500000BF00BF5B4F08373F6807F0F001090970
:102860005F4F7A5C0768D7404760564F08373F682C
:1028700007F4E051890A5A4F7A5C4768D74087606D
:10288000504F08373F6807F46041490B544F7A5C5A
:102890004768D740C760F0BD002100F44072B2F530
:1028A000407F0AD1474A0832116821F4F8114D4A95
:1028B00002401143434A08321160424A70321268A2
:1028C000C0F30B031A433F4B70331A607047414902
:1028D0004439086070473F494039086070474249B1
:1028E0000860704739B1374A303212680243354BBD
:1028F00030331A6006E0334A303212688243314B7B
:1029000030331A60704739B12E4A343212680243AC
:102910002C4B34331A6006E02A4A34321268824360
:10292000284B34331A60704739B1264A383212685E
:102930000243244B38331A6006E0224A38321268C8
:102940008243204B38331A60704739B11D4A4032F8
:10295000126802431B4B40331A6006E0194A4032AA
:1029600012688243174B40331A60704739B1154AD9
:10297000443212680243134B44331A6006E0114A92
:102980004432126882430F4B44331A60704739B1A6
:102990000C4A1032126802430A4B10331A6006E0E8
:1029A000084A103212688243064B10331A6070478F
:1029B000E1B1044A143212680243024B14331A6024
:1029C00019E0000000380240FFFFF6FE103000243E
:1029D00000004742800E47420024F40040787D0109
:1029E00035020020FFFCFF0F5C0147425B4A126882
:1029F00082435A4B1A60704739B1584A121D126807
:102A00000243564B1B1D1A6006E0544A121D126801
:102A10008243524B1B1D1A60704739B14F4A0C322A
:102A2000126802434D4B0C331A6006E04B4A0C32DD
:102A300012688243494B0C331A60704739B1474AD8
:102A4000103212680243454B10331A6006E0434AC5
:102A5000103212688243414B10331A60704739B10B
:102A60003E4A3C32126802433C4B3C331A6006E05B
:102A70003A4A3C3212688243384B3C331A60704702
:102A800039B1364A403212680243344B40331A603F
:102A900006E0324A403212688243304B40331A60BB
:102AA000704739B12D4A4432126802432B4B4433EC
:102AB0001A6006E0294A443212688243274B4433A5
:102AC0001A60704739B1254A4C3212680243234BD1
:102AD0004C331A6006E0214A4C32126882431F4B85
:102AE0004C331A60704739B11C4A503212680243A5
:102AF0001A4B50331A6006E0184A5032126882436B
:102B0000164B50331A60704739B1144AD21F1278ED
:102B10000243124BDB1F1A7006E0104AD21F1278D4
:102B200082430E4BDB1F1A7070470C486030006800
:102B300040F080700949603108607047014600200C
:102B4000064A083A12680A4201D0012000E000203B
:102B500070470249891F087070470000143802400E
:102B600010B50446FE48844208D101210846FFF70B
:102B700065FF00210120FFF761FF9DE0B4F1804F68
:102B800008D101210846FFF748FF00210120FFF787
:102B900044FF91E0F348844208D101210220FFF76D
:102BA0003CFF00210220FFF738FF85E0EE48844219
:102BB00008D101210420FFF730FF00210420FFF796
:102BC0002CFF79E0E948844208D101210820FFF771
:102BD00024FF00210820FFF720FF6DE0E448844235
:102BE00008D101211020FFF718FF00211020FFF766
:102BF00014FF61E0DF48844208D101212020FFF763
:102C00000CFF00212020FFF708FF55E0DA4884423E
:102C100008D101210220FFF711FF00210220FFF758
:102C20000DFF49E0D548844209D101210804FFF78E
:102C300005FF00214FF48030FFF700FF3CE0D04853
:102C4000844209D101214804FFF7F8FE00214FF426
:102C50000030FFF7F3FE2FE0CA48844209D101217A
:102C60008804FFF7EBFE00214FF48020FFF7E6FE1B
:102C700022E0C548844208D101214020FFF7CDFE63
:102C800000214020FFF7C9FE16E0C048844208D169
:102C900001218020FFF7C1FE00218020FFF7BDFE4B
:102CA0000AE0BB48844207D101218015FFF7B5FE39
:102CB0000021A015FFF7B1FE10BD00220288A84B2D
:102CC00098420ED0AC4B98420BD0B0F1804F08D058
:102CD000A44B984205D0A44B984202D0A34B9842F3
:102CE00004D14FF68F731A404B881A43A04B984279
:102CF00007D0A04B984204D04FF6FF431A400B89EF
:102D00001A4302804B68C3620B880385944B984238
:102D100002D0994B984201D18B7A0386012383829A
:102D200070474FF0FF3141600021018001814180F7
:102D3000817270470185828270470A4600210188AE
:102D40004FF68F73194011430180704741627047FD
:102D5000C16270470146486A70470146088D704756
:102D600021B1028842F00202028004E002884FF69C
:102D7000FD731A400280704721B1028842F00402BC
:102D8000028004E002884FF6FB731A40028070470D
:102D900021B1028842F08002028004E002884FF6EE
:102DA0007F731A400280704702884FF6F7731A400B
:102DB000028002880A430280704702884FF6FF4370
:102DC0001A40028002880A430280704721B10288BB
:102DD00042F00102028004E002884FF6FE731A40BE
:102DE0000280704770B5002400220023058C4FF646
:102DF000FE7635400584028C8388048B4FF68F75F0
:102E00002C40B51E2C400D882C43751E2A408D8900
:102E10002A434D882A43524DA84202D0564DA8421B
:102E200013D14FF6F7752A40CD892A434FF6FB752B
:102E30002A408D882A434FF6FF652B404FF6FF55F9
:102E40002B400D8A2B434D8A2B43838004838D684E
:102E50004563028470BD70B5002400220023058CF8
:102E60004FF6EF7635400584028C8388048B48F654
:102E7000FF752C404FF6FF452C400D884FF6FF762E
:102E800006EA05252C434FF6DF752A408D8906EAB0
:102E900005152A434D8806EA05152A43304DA842F8
:102EA00002D0354DA8421DD14FF67F752A40CD89FD
:102EB0004FF6FF7606EA05152A434FF6BF752A40FE
:102EC0008D8806EA05152A434FF6FF352B404FF251
:102ED000FF752B400D8A06EA85052B434D8A06EACD
:102EE00085052B43838004838D688563028470BDD0
:102EF00070B5002400220023058C4FF6FF66354094
:102F00000584028C8388848B4FF68F752C404FF696
:102F1000FC752C400D882C434FF6FF552A408D89B7
:102F20004FF6FF7606EA05252A434D8806EA052571
:102F30002A430B4DA84202D00F4DA84238D14FF280
:102F4000FF752A40CD894FF6FF7606EA05252A430C
:102F50004FF6FF352A408D8806EA05252A4319E0F9
:102F6000000001400004004000080040000C004048
:102F700000100040001400400004014000400140E7
:102F8000004401400048014000180040001C00407F
:102F9000002000404EF6FF752B404DF6FF752B408C
:102FA0000D8A06EA05152B434D8A06EA05152B43C3
:102FB000838084838D68C563028470BD70B50022F0
:102FC00000230024058C4EF6FF7635400584038CE3
:102FD0008488828B48F6FF752A404FF6FF452A40C9
:102FE0000D884FF6FF7606EA05252A434DF6FF7554
:102FF0002B408D8906EA05352B434D8806EA0535B9
:103000002B43FE4DA84202D0FD4DA84208D14BF6FD
:10301000FF752C400D8A4FF6FF7606EA85152C4386
:10302000848082838D680564038470BD00210180E3
:103030004180818081608181C181018241827047AC
:1030400070B50346002000241846183001258D4035
:10305000ACB21D8CA5431D8409B108290AD100EB2F
:10306000610005684FF68F763540056005681543A9
:1030700005600FE00D1FC5F34E052844056848F6AE
:10308000FF763540056005684FF6FF7606EA0226B2
:103090003543056070BD4163704781637047C1630C
:1030A0007047016470470A460021018B4FF68F7309
:1030B00019401143018370470A460021018B48F6ED
:1030C000FF7319404FF6FF7303EA0223194301838C
:1030D00070470A460021818B4FF68F7319401143C8
:1030E000818370470A460021818B48F6FF7319409F
:1030F0004FF6FF7303EA02231943818370470A46A0
:103100000021018B4FF6F77319401143018370477B
:103110000A460021018B4FF2FF7319404FF6FF73EF
:1031200003EA02231943018370470A460021818B79
:103130004FF6F77319401143818370470A46002107
:10314000818B4FF2FF7319404FF6FF7303EA02239E
:103150001943818370470A460021018B4FF6FB73A8
:1031600019401143018370470A460021018B4FF635
:10317000FF3319404FF6FF7303EA0223194301831B
:1031800070470A460021818B4FF6FB7319401143AB
:10319000818370470A460021818B4FF6FF33194027
:1031A0004FF6FF7303EA02231943818370470A46EF
:1031B0000021018B4FF67F73194011430183704743
:1031C0000A460021018BC1F30E014FF6FF7303EA9B
:1031D00002231943018370470A460021818B4FF671
:1031E0007F7319401143818370470A460021818B08
:1031F000C1F30E014FF6FF7303EA022319438183E3
:1032000070470A460021018C4FF6FD7319401143A7
:10321000018470470A460021018C4FF6F77319406C
:103220001143018470470A460021018C4FF6DF7379
:1032300019404FF6FF7303EA0213194301847047E4
:103240000A460021018C4FF67F7319404FF6FF7339
:1032500003EA02131943018470470A460021018CD6
:103260004FF6FF5319404FF6FF7303EA0223194349
:10327000018470470A460021018C4FF2FF73194008
:103280004FF6FF7303EA02231943018470470A468D
:103290000021018C4DF6FF7319404FF6FF7303EACE
:1032A000023319430184704730B5002301248C4058
:1032B000A3B2048C9C430484048C02FA01F5ADB2E1
:1032C0002C43048430BD30B5002304248C40A3B2C9
:1032D000048C9C430484048C02FA01F5ADB22C43A7
:1032E000048430BD828B4FF2FF331A408283828B7D
:1032F0004FF6FF7303EA01231A4382837047F0B548
:103300000C461546002100220026078C4EF6FF7C55
:1033100007EA0C070784818B028C4FF6FF7707EAD8
:10332000043640F6FF4739404FF6FF7707EA052796
:1033300039434FF6FF7707EA0337394345F6FF77FE
:103340003A4046F480573A4381830284F0BD828B31
:103350004FF6F3731A408283828B0A43828370474D
:10336000F0B50C461546002100220026078C4FF6CA
:10337000FF6C07EA0C070784818B028C4FF6FF77FE
:1033800007EA04264FF60C7739404FF6FF7707EA35
:1033900003172F4339434FF2FF573A4046F48077E3
:1033A0003A4381830284F0BD028B4FF2FF331A400F
:1033B0000283028B4FF6FF7303EA01231A43028351
:1033C0007047F0B50C461546002100220026078CF8
:1033D0004FF6EF7C07EA0C070784018B028C4FF64F
:1033E000FF7707EA041640F6FF4739404FF6FF77AC
:1033F00007EA033739434FF6FF7703E00000014047
:103400000004014007EA052739434FF65F773A4049
:1034100046F010073A4301830284F0BD028B4FF659
:10342000F3731A400283028B0A4302837047F0B59C
:103430000C46154600210022068C4FF6FE773E40D2
:103440000684018B028C4FF60C7631407E1C06EA16
:1034500003162E4331434FF6F576324044F0010611
:10346000324301830284F0BD70B505460C462088C6
:1034700050B92389A28861882846FFF7D8FFE188E0
:103480002846FFF7CBFF25E0208804280AD12389AE
:10349000A28861882846FFF794FFE1882846FFF755
:1034A00083FF17E0208808280AD12389A288618831
:1034B0002846FFF755FFE1882846FFF748FF09E057
:1034C0002389A28861882846FFF719FFE1882846EA
:1034D000FFF708FF70BD002101804180012181803C
:1034E0000021C180018170472DE9F04105460C465D
:1034F00000260127608808B9022600E00026A0887F
:10350000012801D1022700E001272088A0B92389E2
:10351000A28861882846FFF78AFFE1882846FFF7DE
:103520007DFF23893A4631462846FFF74AFFE18866
:103530002846FFF739FF13E02389A28861882846CF
:10354000FFF73FFFE1882846FFF72EFF23893A4621
:1035500031462846FFF76BFFE1882846FFF75EFFFC
:10356000BDE8F0810146486B70470146886B7047A3
:103570000146C86B70470146086C70470A884B8843
:103580001A438B881A43CB881A430B891A434B89F9
:103590001A438B891A43A0F8442070470021018008
:1035A00041808180C180018141818181704731B139
:1035B000B0F8442042F40042A0F8442005E0B0F8FE
:1035C0004420C2F30E02A0F84420704721B1828843
:1035D00042F00402828004E082884FF6FB731A40B6
:1035E0008280704721B1828842F00102828004E02B
:1035F00082884FF6FE731A40828070471AB1838921
:103600000B43838102E083898B43838170478182EE
:10361000704702460020138A0B4201D0012000E0CF
:1036200000207047CA430282704730B5024600202E
:1036300000230024158A05EA0103958905EA01049F
:1036400013B10CB1012000E0002030BDCA4302825A
:10365000704741EA0203A0F8483070471AB18389E5
:103660000B43838102E083898B438381704721B1BF
:10367000828842F00802828004E082884FF6F77365
:103680001A408280704701894FF6F872114001811B
:1036900070470A46002101894FF68F731940114384
:1036A0000181704730B504460D4629462046FFF794
:1036B000F0FF208940F00700208130BD2DE9F04166
:1036C00004460D4616461F46602D06D13B46012294
:1036D00031462046FFF775FE05E03B4601223146A4
:1036E0002046FFF7A4FE29462046FFF7D2FF208997
:1036F00040F007002081BDE8F08130B50C46002184
:103700000189C9B24FF6FF7505EA03251543254324
:103710002943018130BD2DE9F04105460E4617468B
:103720009846002443463A4631462846FFF7E5FFCF
:103730002C894FF6F870044044F007044FF68F7060
:10374000044044F070042C81BDE8F081F0B50446DB
:103750000D4616461F463B46324629462046FFF791
:10376000CCFF208940F480402081F0BD82884FF654
:103770008F731A40828082880A4382807047028950
:103780004FF6F8731A40028102890A43028170479A
:1037900002894FF67F731A40028102890A4302812F
:1037A0007047F0B50C4615461E4600210022002346
:1037B0000189028B038C4FF6F877394021434FF68D
:1037C000FC473A4040F201173A434FF6DD773B4061
:1037D0004FF6FF7707EA06172F433B430181028329
:1037E0000384F0BD21B1828842F08002828004E02F
:1037F00082884FF67F731A4082807047A0F850107D
:103800007047000010B50446F748844208D10121F2
:103810001020FFF713F900211020FFF70FF93EE009
:10382000F248844209D101214804FFF7F6F800214B
:103830004FF40030FFF7F1F831E0ED48844209D150
:1038400001218804FFF7E9F800214FF48020FFF7F9
:10385000E4F824E0E748844209D10121C804FFF7D5
:10386000DCF800214FF40020FFF7D7F817E0E2481A
:10387000844209D101210805FFF7CFF800214FF458
:103880008010FFF7CAF80AE0DC48844207D1012122
:103890002020FFF7D3F800212020FFF7CFF810BD3C
:1038A0002DE9FF4705460E460024A14600BFA0466D
:1038B000B08900B100BF2C8A24F44054F08804433E
:1038C0002C82AC8941F20C608443B0883189084372
:1038D000718908430443AC81AC8A24F44074B089F4
:1038E0000443AC826846FEF768FFBF48854202D0B9
:1038F000C248854202D1DDF80C9001E0DDF8089065
:10390000A88910F4004F08D009EBC90000EB09109A
:1039100031684900B0FBF1F707E009EBC90000EBA3
:10392000091031688900B0FBF1F76420B7FBF0F0B3
:1039300004012009642101FB1078A88910F4004FCC
:1039400008D0322000EBC800B0FBF1F000F0070017
:10395000044308E0322000EB08106421B0FBF1F0D2
:1039600000F00F0004432C81BDE8FF874FF416518F
:10397000016000218180C18001810C2141810021F1
:103980008181704710B502460020108A20F47060D3
:103990000B884C8823438C882343CC8823431843CB
:1039A000108210BD0021018041808180C18070475C
:1039B00021B1828942F40052828104E082894DF66D
:1039C000FF731A4082817047028B02F47F420283A8
:1039D000028B0A430283704721B1828942F400427C
:1039E000828103E08289C2F30E028281704721B195
:1039F000828A42F40062828204E0828A4FF2FF737C
:103A00001A4082827047C1F30802828070470146E3
:103A10008888C0F308007047028A4FF6F0731A4096
:103A20000282028A0A430282704721B1828942F0EF
:103A30000202828104E082894FF6FD731A4082817E
:103A4000704782894FF2FF731A40828182890A434C
:103A500082817047028A4FF6DF731A400282028A1F
:103A60000A430282704721B1028A42F480420282F4
:103A700004E0028A4BF6FF731A4002827047818984
:103A800041F001018181704721B1828A42F0080230
:103A9000828204E0828A4FF6F7731A40828270476E
:103AA000028BD2B20283028B42EA01220283704768
:103AB00021B1828A42F02002828204E0828A4FF69B
:103AC000DF731A408282704721B1828A42F010026D
:103AD000828204E0828A4FF6EF731A408282704736
:103AE000828A4FF6FB731A408282828A0A4382825C
:103AF000704721B1828A42F00202828204E0828A07
:103B00004FF6FD731A40828270471AB1838A0B43C5
:103B1000838202E0838A8B4383827047F0B5034639
:103B20000024002600250020A1F510676A3F00D17F
:103B300000BF1846C1F3421401F01F06012707FA1F
:103B400006F5012C01D10C3004E0022C01D110301B
:103B500000E014301AB107682F43076002E00768DD
:103B6000AF430760F0BD02460020B1F5007F00D1F1
:103B700000BF13880B4201D0012000E000207047F5
:103B800001F40072B2F5007F00D100BFCA43028089
:103B9000704770B502460024002300250020A1F5DF
:103BA00010666A3E00D100BFC1F3421501F01F0349
:103BB000012606FA03F3012D02D19689334006E06F
:103BC000022D02D1168A334001E0968A33400C124E
:103BD000012606FA04F41688344013B10CB1012012
:103BE00000E0002070BD00000010014000440040D3
:103BF00000480040004C00400050004000140140CC
:103C000010B500220023A1F510646A3C00D100BF6A
:103C10000A1201249440A3B2DC43048010BD0000CA
:103C20000CB50020019000906B48006840F4803093
:103C30006949086000BF6848006800F400300090DF
:103C40000198401C0190009818B90198B0F5A06F38
:103C5000F1D16148006810F4003F02D001200090CB
:103C600001E0002000900098012837D15A48083020
:103C700000685949083108600846006840F400406F
:103C800008600846006840F4A05008605348091FC7
:103C90000860081F006840F08070091F086000BFBE
:103CA0004D48006810F0007FFAD040F203704C4994
:103CB000086049480830006820F003004649083190
:103CC00008600846006840F00200086000BF4248F3
:103CD0000830006800F00C000828F8D10CBD10B5C1
:103CE0003D48006840F001003B49086000203A4927
:103CF00008310860384800683A4908403649086089
:103D00003948091D0860081F006820F48020091F39
:103D10000860002030490C310860FFF781FF4FF048
:103D200000603249086010BD70B5002000220223F7
:103D300000240221284D08352D6805F00C0020B123
:103D4000042806D0082834D107E0294D294E3560D3
:103D500033E0294D274E35602FE01F4D2D1D2D6876
:103D6000C5F380541C4D2D1D2D6805F03F0154B145
:103D7000214DB5FBF1F5184E361D3668C6F3881691
:103D800005FB06F209E01A4DB5FBF1F5124E361DA2
:103D90003668C6F3881605FB06F20F4D2D1D2D68FB
:103DA000C5F301456D1C6B00B2FBF3F5114E356098
:103DB00003E00F4D0F4E356000BF00BF064D0835C4
:103DC0002D68C5F303150D4E705D0A4D2D68C54075
:103DD000084E356070BD000000380240193C4005B7
:103DE000003C0240FFFFF6FE1030002408ED00E02A
:103DF0000024F4004802002040787D014C0200209D
:103E00000948804709480047FEE7FEE7FEE7FEE76E
:103E1000FEE7FEE7FEE7FEE7FEE7FEE704480549AA
:103E2000054A064B70470000DF3C0008850100088A
:103E3000700B002070110020700D0020700D00200C
:103E400040EA010310B59B070FD1042A0DD310C817
:103E500008C9121F9C42F8D020BA19BA884201D969
:103E6000012010BD4FF0FF3010BD1AB1D30703D0B1
:103E7000521C07E0002010BD10F8013B11F8014B67
:103E80001B1B07D110F8013B11F8014B1B1B01D183
:103E9000921EF1D1184610BD032A40F2308010F076
:103EA000030C00F0158011F8013BBCF1020F6244D5
:103EB00098BF11F801CB00F8013B38BF11F8013B66
:103EC000A2F1040298BF00F801CB38BF00F8013B13
:103ED00011F0030300F07180083AC0F0088051F837
:103EE000043B083A51F804CBA0E80810F5E7121D8E
:103EF0005CBF51F8043B40F8043BAFF30080D207AD
:103F000024BF11F8013B11F801CB48BF11F8012B78
:103F100024BF00F8013B00F801CB48BF00F8012B9B
:103F200070474FF000020429C0F0128010F0030C1B
:103F300000F01B80CCF1040CBCF1020F18BF00F89C
:103F4000012BA8BF20F8022BA1EB0C0100F00DB84B
:103F50005FEAC17C24BF00F8012B00F8012B48BFA9
:103F600000F8012B70474FF0000200B5134694464D
:103F70009646203922BFA0E80C50A0E80C50B1F1C1
:103F80002001BFF4F7AF090728BFA0E80C5048BFD5
:103F90000CC05DF804EB890028BF40F8042B08BF73
:103FA000704748BF20F8022B11F0804F18BF00F86F
:103FB000012B704770477047704710B5203AC0F02A
:103FC0000B80B1E81850203AA0E81850B1E818501A
:103FD000A0E81850BFF4F5AF5FEA027C24BFB1E857
:103FE0001850A0E8185044BF18C918C0BDE81040C8
:103FF0005FEA827C24BF51F8043B40F8043B08BFD1
:104000007047D20728BF31F8023B48BF11F8012B97
:1040100028BF20F8023B48BF00F8012B70477546C7
:1040200000F028F8AE4605006946534620F0070028
:10403000854618B020B5FFF7F1FEBDE820404FF0EF
:1040400000064FF000074FF000084FF0000B21F082
:104050000701AC46ACE8C009ACE8C009ACE8C0094F
:10406000ACE8C0098D4670470446AFF30080204697
:10407000FCF7EFF800487047100B002001491820AA
:10408000ABBEFEE7260002007047025F0900080190
:10409000370A0008340200201C02002028020020F9
:1040A000C0400008000000205C020000C0010008C1
:1040B000084200085C020020140F00001C020008E7
:1040C000912808C1814001C0804104690C2908E998
:1040D00018A91C091A30091638093660092E70090A
:1040E0002F6000FF00C0C101C30302C2C60607C79C
:1040F00005C5C404CC0C0DCD0FCFCE0E0ACACB0B18
:10410000C90908C8D81819D91BDBDA1A1EDEDF1F47
:10411000DD1D1CDC14D4D515D71716D6D21213D337
:1041200011D1D010F03031F133F3F23236F6F737E7
:10413000F53534F43CFCFD3DFF3F3EFEFA3A3BFBD7
:1041400039F9F83828E8E929EB2B2AEAEE2E2FEF87
:104150002DEDEC2CE42425E527E7E62622E2E323F7
:10416000E12120E0A06061A163A3A26266A6A76727
:10417000A56564A46CACAD6DAF6F6EAEAA6A6BAB97
:1041800069A9A86878B8B979BB7B7ABABE7E7FBFC7
:104190007DBDBC7CB47475B577B7B67672B2B373B7
:1041A000B17170B050909151935352929656579767
:1041B000559594549C5C5D9D5F9F9E5E5A9A9B5B57
:1041C00099595898884849894B8B8A4A4E8E8F4F07
:1041D0008D4D4C8C44848545874746868242438377
:1041E0004181800317400232401380024220231095
:1041F000085AC00C112D01020304044506070809E2
:08420000840E27076917000076
:040000050800018569
:00000001FF
